:020000040800F2
:10000000008002202D3700087D3700087D3700086A
:100010007D3700087D3700087D37000800000000AC
:100020000000000000000000000000007D37000814
:100030007D370008000000007D370008E935000822
:100040007D3700087D3700087D3700087D370008C0
:100050007D3700087D3700087D3700087D370008B0
:100060007D3700087D3700087D3700087D370008A0
:100070007D3700087D3700087D3700087D37000890
:100080007D3700087D3700087D3700087D37000880
:100090007D3700087D3700087D3700087D37000870
:1000A0007D3700087D3700087D3700087D37000860
:1000B0007D3700087D370008000000007D3700080C
:1000C0007D3700087D3700087D3700087D37000840
:1000D0007D3700087D3700087D3700087D37000830
:1000E0007D3700087D370008000000000000000098
:1000F0000000000000000000000000000000000000
:10010000000000007D370008000000007D37000877
:100110007D370008000000007D3700080000000067
:100120007D3700087D3700087D3700087D370008DF
:100130007D3700087D3700087D370008000000008B
:100140007D3700087D3700087D3700087D370008BF
:100150007D3700087D3700087D3700087D370008AF
:100160007D3700087D3700087D370008000000005B
:10017000000000007D3700080000000000000000C3
:100180007D3700087D3700087D3700087D3700087F
:040190007D370008AF
:1001940010B5054C237833B9044B13B10448AFF3BD
:1001A40000800123237010BDF047002000000000F0
:1001B400C837000808B5034B1BB103490348AFF324
:1001C400008008BD00000000F4470020C837000884
:1001D40081F0004102E000BF83F0004330B54FEAF4
:1001E40041044FEA430594EA050F08BF90EA020F61
:1001F4001FBF54EA000C55EA020C7FEA645C7FEAF4
:10020400655C00F0E2804FEA5454D4EB5555B8BF16
:100214006D420CDD2C4480EA020281EA030382EA87
:10022400000083EA010180EA020281EA0303362D19
:1002340088BF30BD11F0004F4FEA01314FF4801CEC
:100244004CEA113102D0404261EB410113F0004FFE
:100254004FEA03334CEA133302D0524263EB4303B5
:1002640094EA050F00F0A780A4F10104D5F1200E53
:100274000DDB02FA0EFC22FA05F2801841F10001AE
:1002840003FA0EF2801843FA05F359410EE0A5F182
:1002940020050EF1200E012A03FA0EFC28BF4CF0B3
:1002A400020C43FA05F3C01851EBE37101F0004569
:1002B40007D54FF0000EDCF1000C7EEB00006EEB76
:1002C4000101B1F5801F1BD3B1F5001F0CD3490800
:1002D4005FEA30004FEA3C0C04F101044FEA445257
:1002E40012F5800F80F09A80BCF1004F08BF5FEADE
:1002F400500C50F1000041EB045141EA050130BDBE
:100304005FEA4C0C404141EB010111F4801FA4F160
:100314000104E9D191F0000F04BF01460020B1FAB5
:1003240081F308BF2033A3F10B03B3F120020CDAED
:100334000C3208DD02F1140CC2F10C0201FA0CF0CB
:1003440021FA02F10CE002F11402D8BFC2F1200C30
:1003540001FA02F120FA0CFCDCBF41EA0C019040E6
:10036400E41AA2BF01EB0451294330BD6FEA04042F
:100374001F3C1CDA0C340EDC04F11404C4F120021A
:1003840020FA04F001FA02F340EA030021FA04F32C
:1003940045EA030130BDC4F10C04C4F1200220FA83
:1003A40002F001FA04F340EA0300294630BD21FAC1
:1003B40004F0294630BD94F0000F83F4801306BF87
:1003C40081F480110134013D4EE77FEA645C18BF7B
:1003D4007FEA655C29D094EA050F08BF90EA020F12
:1003E40005D054EA000C04BF1946104630BD91EA0A
:1003F400030F1EBF0021002030BD5FEA545C05D10D
:100404004000494128BF41F0004130BD14F580044B
:100414003CBF01F5801130BD01F0004545F0FE41BF
:1004240041F470014FF0000030BD7FEA645C1ABFF4
:10043400194610467FEA655C1CBF0B46024650EA2B
:10044400013406BF52EA033591EA030F41F4002157
:1004540030BD00BF90F0000F04BF0021704730B5DD
:100464004FF4806404F132044FF000054FF00001B2
:1004740050E700BF90F0000F04BF0021704730B573
:100484004FF4806404F1320410F0004548BF404248
:100494004FF000013EE700BF42004FEAE2014FEA9D
:1004A40031014FEA02701FBF12F07F4393F07F4F78
:1004B40081F06051704792F0000F14BF93F07F4FAA
:1004C400704730B54FF4607401F0004521F00041ED
:1004D40020E700BF50EA010208BF704730B54FF073
:1004E40000050AE050EA010208BF704730B511F078
:1004F400004502D5404261EB41014FF4806404F1B0
:1005040032045FEA915C3FF4DCAE4FF003025FEA31
:10051400DC0C18BF03325FEADC0C18BF033202EBB9
:10052400DC02C2F1200300FA03FC20FA02F001FA13
:1005340003FE40EA0E0021FA02F11444C1E600BFB2
:1005440070B54FF0FF0C4CF4E06C1CEA11541DBF65
:100554001CEA135594EA0C0F95EA0C0F00F0DEF830
:100564002C4481EA030621EA4C5123EA4C5350EA15
:10057400013518BF52EA033541F4801143F4801366
:1005840038D0A0FB02CE4FF00005E1FB02E506F0F7
:100594000042E0FB03E54FF00006E1FB03569CF04C
:1005A400000F18BF4EF0010EA4F1FF04B6F5007F52
:1005B40064F5407404D25FEA4E0E6D4146EB0606C4
:1005C40042EAC62141EA55514FEAC52040EA5E504D
:1005D4004FEACE2EB4F1FD0C88BFBCF5E06F1ED8F7
:1005E400BEF1004F08BF5FEA500E50F1000041EB2E
:1005F400045170BD06F0004646EA010140EA0200DB
:1006040081EA0301B4EB5C04C2BFD4EB0C0541EAFC
:10061400045170BD41F480114FF0000E013C00F311
:10062400AB8014F1360FDEBF002001F0004170BD35
:10063400C4F10004203C35DA0C341BDC04F114044E
:10064400C4F1200500FA05F320FA04F001FA05F2DA
:1006540040EA020001F0004221F0004110EBD370A7
:1006640021FA04F642EB06015EEA430E08BF20EAD3
:10067400D37070BDC4F10C04C4F1200500FA04F376
:1006840020FA05F001FA04F240EA020001F0004108
:1006940010EBD37041F100015EEA430E08BF20EA7B
:1006A400D37070BDC4F1200500FA05F24EEA020EC3
:1006B40020FA04F301FA05F243EA020321FA04F0F2
:1006C40001F0004121FA04F220EA020000EBD370A9
:1006D4005EEA430E08BF20EAD37070BD94F0000FA9
:1006E4000FD101F00046400041EB010111F4801FDD
:1006F40008BF013CF7D041EA060195F0000F18BF8E
:10070400704703F00046520043EB030313F4801FC9
:1007140008BF013DF7D043EA0603704794EA0C0F83
:100724000CEA135518BF95EA0C0F0CD050EA410699
:1007340018BF52EA4306D1D181EA030101F0004116
:100744004FF0000070BD50EA410606BF104619463E
:1007540052EA430619D094EA0C0F02D150EA01364A
:1007640013D195EA0C0F05D152EA03361CBF10468B
:1007740019460AD181EA030101F0004141F0FE412A
:1007840041F470014FF0000070BD41F0FE4141F4AE
:10079400780170BD70B54FF0FF0C4CF4E06C1CEAAE
:1007A40011541DBF1CEA135594EA0C0F95EA0C0F63
:1007B40000F0A7F8A4EB050481EA030E52EA03351E
:1007C4004FEA013100F088804FEA03334FF080553F
:1007D40045EA131343EA12634FEA022245EA11156C
:1007E40045EA10654FEA00260EF000419D4208BF1D
:1007F400964244F1FD0404F5407402D25B084FEACA
:100804003202B61A65EB03055B084FEA32024FF475
:1008140080104FF4002CB6EB020E75EB030E22BFD2
:10082400B61A754640EA0C005B084FEA3202B6EB92
:10083400020E75EB030E22BFB61A754640EA5C0041
:100844005B084FEA3202B6EB020E75EB030E22BFD1
:10085400B61A754640EA9C005B084FEA3202B6EBD2
:10086400020E75EB030E22BFB61A754640EADC0091
:1008740055EA060E18D04FEA051545EA16754FEAF3
:1008840006164FEAC30343EA52734FEAC2025FEA11
:100894001C1CC0D111F4801F0BD141EA00014FF0A0
:1008A40000004FF0004CB6E711F4801F04BF014371
:1008B4000020B4F1FD0C88BFBCF5E06F3FF6AFAE8D
:1008C400B5EB030C04BFB6EB020C5FEA500C50F11D
:1008D400000041EB045170BD0EF0004E4EEA1131A0
:1008E40014EB5C04C2BFD4EB0C0541EA045170BDA7
:1008F40041F480114FF0000E013C90E645EA060EEB
:100904008DE60CEA135594EA0C0F08BF95EA0C0F18
:100914003FF43BAF94EA0C0F0AD150EA01347FF460
:1009240034AF95EA0C0F7FF425AF104619462CE737
:1009340095EA0C0F06D152EA03353FF4FDAE10469A
:10094400194622E750EA410618BF52EA43067FF4EB
:10095400C5AE50EA41047FF40DAF52EA43057FF47B
:10096400EBAE12E74A0011D212F5001211D20DD5E6
:100974006FF47873B3EB62520ED44FEAC12343F0A1
:10098400004343EA505323FA02F070474FF000004B
:10099400704750EA013002D14FF0FF3070474FF0FA
:1009A4000000704753B94AB9002908BF00281CBF8A
:1009B4004FF0FF314FF0FF3000F07AB9ADF1080C81
:1009C4006DE904CE00F006F8DDF804E0DDE9022369
:1009D40004B070472DE9F0478C460D460446089E46
:1009E400002B51D18A4217466DD9B2FA82FEBEF16C
:1009F400000F0BD0CEF1200C01FA0EF520FA0CFCFE
:100A040002FA0EF74CEA050C00FA0EF44FEA174A04
:100A1400250CBCFBFAF81FFA87F90AFB18CC45EA47
:100A24000C4508FB09F3AB420AD9ED1908F1FF3272
:100A340080F02381AB4240F22081A8F102083D44BA
:100A4400ED1AA4B2B5FBFAF00AFB105544EA0544CA
:100A540000FB09F9A14509D9E41900F1FF3380F03D
:100A64000A81A14540F2078102383C44A4EB090401
:100A740040EA08400021002E61D024FA0EF400233D
:100A840034607360BDE8F0878B4207D9002E54D0E0
:100A9400002186E821000846BDE8F087B3FA83F117
:100AA400002940F08E80AB4202D3824200F2FA80E9
:100AB400841A65EB03050120AC46002E3FD086E87E
:100AC4001010BDE8F08712B90127B7FBF2F7B7FAA7
:100AD40087FEBEF1000F34D1EB1B3A0C1FFA87FCE2
:100AE4000121B3FBF2F8250C02FB183345EA034558
:100AF4000CFB08F3AB4207D9ED1908F1FF3002D221
:100B0400AB4200F2D1808046ED1AA3B2B5FBF2F0FD
:100B140002FB105543EA05440CFB00FCA44507D92D
:100B2400E41900F1FF3302D2A44500F2B88018465C
:100B3400A4EB0C0440EA08409DE731463046BDE88A
:100B4400F087CEF1200405FA0EF307FA0EF720FA27
:100B540004F83A0C25FA04F448EA0308B4FBF2F169
:100B64004FEA184502FB11441FFA87FC45EA044585
:100B740001FB0CF3AB4200FA0EF409D9ED1901F1B3
:100B8400FF3080F08A80AB4240F2878002393D44D6
:100B9400EB1A1FFA88F5B3FBF2F002FB103345EAB7
:100BA400034500FB0CF3AB4207D9ED1900F1FF3804
:100BB4006FD2AB426DD902383D44EB1A40EA014191
:100BC4008FE7C1F1200722FA07F88B4005FA01F4F8
:100BD40048EA030320FA07FE4FEA134CFD404EEAAD
:100BE400040EB5FBFCF94FEA1E440CFB19551FFA21
:100BF40083F844EA054509FB08F4AC4202FA01F221
:100C040000FA01FA08D9ED1809F1FF3043D2AC42D9
:100C140041D9A9F102091D442D1B1FFA8EFEB5FB13
:100C2400FCF00CFB10554EEA054400FB08F8A04507
:100C340007D9E41800F1FF3529D2A04527D9023895
:100C44001C4440EA0940A4EB0804A0FB02894C457B
:100C5400C6464D4615D312D056B1BAEB0E0364EB1B
:100C6400050404FA07F7CB401F43CC403760746097
:100C74000021BDE8F0871846F8E69046E0E6C24554
:100C8400EAD2B8EB020E69EB03050138E4E7284623
:100C9400D7E7404691E78146BEE7014678E7023848
:100CA4003C4445E7084608E7A8F102083D442BE721
:100CB400704700BF10B5084B044618684FF47A73A8
:100CC400B0FBF3F000F062F8002221464FF0FF3051
:100CD40000F028F8002010BDEC470020074A08B5B2
:100CE400136843F480731360032000F009F80020B4
:100CF400FFF7E0FF02F0D8FB002008BD002002400F
:100D0400074AD36823F4E0631B041B0C43F0BF635E
:100D1400000243F4003300F4E0600343D3607047FF
:100D240000ED00E0174B30B5DC68C4F30224C4F1D5
:100D34000703251D042B28BF0423062D4FF00105AE
:100D440005FA03F303F1FF338CBF033C002419407D
:100D5400A14005FA04F4013C2240002842EA0102C1
:100D64004FEA0212AFBF00F1604000F00F00064BE3
:100D7400D2B2A5BF00F56140D2B21A5480F8002364
:100D840030BD00BF00ED00E014ED00E00138B0F12B
:100D9400807F0AD2064B074A5860F02182F823105C
:100DA4000020072298601A6070470120704700BF36
:100DB40010E000E000ED00E0044B1A6804280CBFCA
:100DC40042F0040222F004021A60704710E000E0CE
:100DD400704708B5FFF7FCFF08BDF0B590F8244054
:100DE400012C38D090F825500124EDB2A54280F8AA
:100DF40024404FF000064FF002042AD180F8254029
:100E04000468C6632668076C26F001062660466CF3
:100E140006F01C06B5407D60636083680568102B8E
:100E2400036B0BBFA260A160E160E2604BB1236879
:100E340043F00E0323602B6843F001032B60002072
:100E4400F0BD236823F004032360236843F00A03FE
:100E5400F0E780F824600220F0BD00002DE9F74F90
:100E6400D1F80080DFF874915A4A002338FA03F469
:100E740002D103B0BDE8F08F012404FA03FA18EAA2
:100E84000A0500F09C804C6824F0100BBBF1020FA3
:100E940014D14FEAD30E00EB8E0E03F0070CDEF8EC
:100EA40020604FEA8C0C0F2707FA0CF726EA070795
:100EB4000E6906FA0CF63E43CEF820604FEA430C66
:100EC4000327066807FA0CF7FF4304F0030E3E40BD
:100ED4000EFA0CFE0BF1FF3B4EEA0606BBF1010FC6
:100EE400066011D8866806EA070BCE6806FA0CFE7F
:100EF4004EEA0B068660466826EA0A0AC4F3001620
:100F04009E4046EA0A064660C66837408E6806FA7E
:100F14000CF63743E600C76051D5D9F8606046F057
:100F24000106C9F86060D9F8606023F0030707F18F
:100F3400804706F0010607F58037019603F0030C9D
:100F4400019EBE684FEA8C0C4FF00F0E0EFA0CFE99
:100F5400B0F1904F26EA0E0E33D01F4EB04232D07D
:100F640006F58066B04230D006F58066B0422ED0D9
:100F740006F58066B04214BF0726042606FA0CF66E
:100F840046EA0E06BE601668EF4314F4803F0CBFB9
:100F94003E402E431660566814F4003F0CBF3E409A
:100FA4002E435660966814F4801F0CBF3E402E43B7
:100FB4009660D668A40254BF3E402E43D6600133E7
:100FC40054E70026DAE70126D8E70226D6E7032607
:100FD400D4E700BF000401400004004800100240B0
:100FE4000AB181617047816270470000024B186842
:100FF40000F4C060704700BF00700040164B1A68D0
:10100400B0F5007F02F4C0621AD1B2F5007F13D0AC
:101014001A68124922F4C06242F400721A60104A3B
:101024001268B2FBF1F132224A4312B159694905FF
:1010340004D45B695B050DD400207047013AF4E7E2
:10104400B2F5806F1FBF1A6822F4C06242F4806256
:101054001A60F1E7032070470070004040420F001F
:10106400EC47002037B51E4DAB6DDA00044618D5A9
:10107400FFF7BCFFB0F5007F23D1802C29D9A02C29
:101084008CBF02200120174A136823F0070303438F
:101094001360136803F00703181A18BF012003B084
:1010A40030BDAB6D43F08053AB65AB6D03F0805343
:1010B4000193019BFFF79AFFAB6D23F08053AB655F
:1010C400D8E7802C07D808D0A4F1700358425841BF
:1010D400D9E70020D7E70320D5E70220D3E700BFF4
:1010E40000100240002002402F4B9A6812F00C0FAF
:1010F40010B509D09A6802F00C020C2A2DD1DA68D6
:1011040002F00302012A28D11A682849120755BFA0
:10111400D3F894201A68C2F30322C2F3031251F8DD
:101124002220996811F00C0F0CBF1046002099681A
:1011340001F00C010C2930D1DC68D868C0F302102E
:10114400411C04F00300022819D0032826D0B2FB66
:10115400F1F2D868C0F3062017E09A6802F00C0296
:10116400042A07D09A6802F00C02082A04D1104815
:101174000022DCE70F48FBE700200246D7E7DA68E5
:101184000C48C2F30622B0FBF1F0DB68C3F3416301
:10119400013350435B00B0FBF3F010BDDA68044840
:1011A400C2F30622EFE700BF001002402038000817
:1011B40000127A000024F4002DE9F341054608B931
:1011C40001208DE00368D80638D5AB4CA36813F032
:1011D4000C0F61D12368990702D5AB69002BEFD0BE
:1011E4002368286A1A0756BFD4F8943023681B0969
:1011F40003F0F00383423AD2FFF734FF0028DFD133
:10120400236843F00803236023682A6A23F0F00369
:10121400134323606368EA6923F47F4343EA0223A8
:101224006360FFF761FFA368944AC3F30313D35CBD
:10123400D840934B18600020FFF73CFD2B68D8077B
:1012440061D42B68990700F1A9802B681A0700F173
:10125400E7802B685B0700F115812B689A0600F183
:101264007C81AA6A002A40F0A381002038E0236828
:1012740043F008032360236823F0F003034323604F
:101284006368EA6923F47F4343EA02236360FFF758
:10129400E9FE0028C5D093E7AB6923B3236843F084
:1012A4000103236002F03AFA064623689B0711D52E
:1012B400236843F00803236023682A6A23F0F003B9
:1012C400134323606368EA6923F47F4343EA0223F8
:1012D4006360B3E702F022FA801B0228E5D90320F9
:1012E40002B0BDE8F081236823F00103236002F01B
:1012F40015FA064623689F07A0D502F00FFA801B53
:101304000228F7D9EBE75C4CA36803F00C03082B25
:1013140009D0A36803F00C030C2B0BD1E36803F092
:101324000303032B06D123689A038AD56B68002B29
:1013340087D145E76B68B3F5803F10D1236843F448
:101344008033236002F0EAF9064623689B033FF5E5
:1013540078AF02F0E3F9801B6428F6D9BFE7B3F550
:10136400A02F04D1236843F480232360E6E7226896
:1013740022F480322260226822F480222260002B30
:10138400E0D102F0CBF9064623689F037FF559AFFD
:1013940002F0C4F9801B6428F6D9A0E7364CA36890
:1013A40003F00C03042B09D0A36803F00C030C2BEB
:1013B40013D1E36803F00303022B0ED123685E0507
:1013C40003D5EB68002B3FF4FBAE63682A6923F076
:1013D400FE4343EA0263636037E7EB687BB123684B
:1013E40043F48073236002F099F906462368580594
:1013F400EBD402F093F9801B0228F7D96FE7236836
:1014040023F48073236002F089F9064623685905A2
:101414007FF51BAF02F082F9801B0228F6D95EE744
:101424006B69154C9BB1D4F8943043F00103C4F8B4
:10143400943002F073F90646D4F894309F073FF5D0
:1014440008AF02F06BF9801B0228F5D947E7D4F8FE
:10145400943023F00103C4F8943002F05FF9064697
:10146400D4F8943098077FF5F4AE02F057F9801B56
:101474000228F5D933E700BF0010024008380008FD
:10148400EC470020794CA36DD90027D4A36D43F019
:101494008053A365A36D03F080530193019B01273F
:1014A400734E3368DA051BD5AB68012B29D1D4F808
:1014B400903043F00103C4F8903002F02FF941F268
:1014C40088380646D4F89030980740D5002F3FF46A
:1014D400C4AEA36D23F08053A365BEE60027DFE707
:1014E400336843F48073336002F018F9804633683C
:1014F400DB05D9D402F012F9A0EB08000228F6D9D2
:10150400EDE6052B06D1D4F8903043F00403C4F87B
:101514009030CCE7D4F8902022F00102C4F8902057
:10152400D4F8902022F00402C4F89020002BC4D1F7
:1015340002F0F4F841F288380646D4F8903099075E
:10154400C4D502F0EBF8801B4045F6D9C7E602F09B
:10155400E5F8801B4045B5D9C1E66B6A434C9BB1A5
:10156400D4F8983043F00103C4F8983002F0D6F868
:101574000646D4F898309B073FF573AE02F0CEF8D8
:10158400801B0228F5D9AAE6D4F8983023F0010389
:10159400C4F8983002F0C2F80646D4F898309F0791
:1015A4007FF55FAE02F0BAF8801B0228F5D996E603
:1015B4002E4CA36803F00C030C2B3FF401AE2368FC
:1015C400022A23F08073236036D102F0A7F806467E
:1015D400236898012AD4AB6B6A6BDB0643EA0223C7
:1015E400EA6A13432A6B013A43EA0213EA6B52088C
:1015F400013A43EA42532A6C5208013A43EA4263ED
:10160400E360236843F080732360E36843F08073EE
:10161400E36002F083F80546236899013FF525AE9F
:1016240002F07CF8401B0228F6D958E602F076F85E
:10163400801B0228CCD952E623681A015EBFE368F6
:1016440023F00303E360E36823F0887323F4803317
:10165400E36002F063F8054623689B017FF505AE5D
:1016640002F05CF8401B0228F6D938E6001002406C
:10167400007000402DE9F0410E46044610B90120E7
:10168400BDE8F081404A136803F007038B4228D376
:101694002368D90730D421688A075AD43A4A136890
:1016A40003F007039E425CD311F0040F374D63D15E
:1016B4000B0706D5AB68226923F4605343EAC203DF
:1016C400AB60FFF711FDAB68314AC3F30313D35C7E
:1016D400D840304B18600020FFF7ECFA0020BDE83A
:1016E400F081136823F007030B431360136803F0BE
:1016F40007039942C3D1CBE76268244D032A2B68C0
:101704001BD113F0007FBAD0AB6823F0030313435B
:10171400AB6002F003F841F288380746AB686268B0
:1017240003F00C03B3EB820FB5D001F0F7FFC01B3D
:101734004045F3D90320BDE8F081022A02D113F415
:10174400003FE0E712B913F0020FDCE713F4806FF7
:10175400D9E70E4AA068936823F0F003034393602B
:101764009CE7136823F0070333431360136803F003
:1017740007039E4283D197E7AB68E26823F4E063F2
:101784001343AB6094E700BF002002400010024006
:1017940008380008EC470020014B1868704700BF68
:1017A400EC470020044B054A9B68C3F30223D35C37
:1017B400034A1068D84070470010024018380008E7
:1017C400EC470020044B054A9B68C3F3C223D35C57
:1017D400034A1068D84070470010024018380008C7
:1017E400EC470020F8B5444BDA6812F0030F0546C5
:1017F4000E461C46006839D0DA6802F003028242C1
:101804004BD1002A49D0DB686A68C3F30213013361
:10181400934242D1236823F08063236001F07EFF6A
:10182400074623681A0141D4AF68002E45D0012E23
:101834004FD12269286922F4C002400822F4FE42F2
:10184400013842EA072242EA40522261236843F007
:101854008063236001F062FF064623681B0145D5BF
:101864002369AA69134323610020F8BD022810D01C
:10187400032814D0012810D11B689F07F5D5E3680D
:101884006A6823F07303013A184340EA0210E060E7
:10189400C0E71B6813F4806FF1D10120F8BD1A680A
:1018A4009103ECD41B6813F4802FF5E701F036FFA5
:1018B400C01B0228B5D90320F8BD2269E96822F0CB
:1018C4007842C90641EA072322F4FE421343236106
:1018D400BCE72369686923F0C063400823F4FE432E
:1018E400013843EA072343EA4063F0E701F016FFB7
:1018F400801B0228B1D9DEE7001002402DE9F7432E
:10190400056815F4006504460ED0C16CB1F5000FEE
:101914005BD0B1F5400F5DD0002966D10430FFF7EC
:1019240061FF0546002855D023689E036DD5B74E48
:10193400B36DD8005BD4B36D43F08053B365B36D1E
:1019440003F080530193019B0127DFF8C482D8F888
:10195400003043F48073C8F8003001F0DFFE8146A4
:10196400D8F80030D90544D5002D49D1D6F89030A7
:1019740013F4407314D0626E934211D0D6F89030B1
:10198400D6F8902042F48032C6F89020D6F8902001
:1019940023F4407322F48032C6F89020C6F89030C5
:1019A400DA0709D501F0BAFE41F288398046D6F843
:1019B40090309B0740F10181D6F89030626E23F499
:1019C40040731343C6F890301AE0904AD36843F446
:1019D4008033D3608D4AE16CD2F8883023F440031D
:1019E4000B43C2F8883000259EE701259CE70027B9
:1019F400ABE701F093FEA0EB09000228B0D9032560
:101A04001FB1B36D23F08053B3652368DF0708D596
:101A14007E49206AD1F8882022F003020243C1F8EB
:101A240088209E0708D57949606AD1F8882022F079
:101A34000C020243C1F88820580708D57349A06AEC
:101A4400D1F8882022F030020243C1F88820190717
:101A540008D56E49E06AD1F8882022F0C00202431A
:101A6400C1F888209A0608D56849206BD1F88820E7
:101A740022F440620243C1F888209F0508D56349D7
:101A8400606CD1F8882022F440220243C1F88820F7
:101A94005E0508D55D49A06CD1F8882022F4401277
:101AA4000243C1F88820580608D55849606BD1F81C
:101AB400882022F440520243C1F88820190608D530
:101AC4005249A06BD1F8882022F440420243C1F865
:101AD4008820DA0508D54D49E06BD1F8882022F436
:101AE40040320243C1F88820DF0208D54749206C00
:101AF400D1F89C2022F003020243C1F89C209E04EA
:101B04000FD5424A216DD2F8883023F040630B434D
:101B1400B1F1006FC2F8883057D1D36843F4801311
:101B2400D360236818030FD5384A616DD2F8883022
:101B340023F040630B43B1F1006FC2F888304FD1FA
:101B4400D36843F48013D360236859030FD52F4A15
:101B5400A16DD2F8883023F040630B43B1F1006FDC
:101B6400C2F8883047D1D36843F48013D360236824
:101B74005A0412D52549E26DD1F8883023F0405338
:101B84001343B2F1805FC1F8883006D10221201DD1
:101B9400FFF728FE002818BF05462368DB0308D595
:101BA4001A4A216ED2F8883023F000430B43C2F85E
:101BB4008830284603B0BDE8F08301F0AFFDA0EB08
:101BC400080048457FF6F3AE19E7B1F1806FA8D15C
:101BD4000121201DFFF706FE002818BF0546A0E7D7
:101BE400B1F1806FB0D10121201DFFF7FBFD00286A
:101BF40018BF0546A8E7B1F1806FB8D10121201DB7
:101C0400FFF7F0FD002818BF0546B0E700100240BA
:101C140000700040836A1A68D36B43F48073D36303
:101C2400704700002DE9F043174687B004469846F4
:101C34000A4641B9836B43F00063A3630125284638
:101C440007B0BDE8F08390F83460F6B2012E75D188
:101C54000023E16D836307EB0800884203D9A36B7B
:101C640043F00073E9E72568032184F83410EB623C
:101C7400E86B334940F49570E863206C4FEA4829D7
:101C8400C16230494163836305F180014FEA9903DE
:101C9400FFF7A3F80546206865B1C36B23F4957379
:101CA400C363294B8363A36B43F08043A36384F82A
:101CB4003460C3E7C36A43F00803C362636C4FF440
:101CC4000071012B18BF7F0200F0A1FE48B1236808
:101CD4001D4A9A63A36B01251843A06384F834500A
:101CE400ADE74FF0FF338DE80802902302930223FF
:101CF40003930490012369462068059300F075FE60
:101D0400B8F1010F13D9822323633946206800F008
:101D1400AEFE002893D023680B4A9A63A36B012577
:101D240018430023A06384F83450236387E7812396
:101D340023633946206800F082FEEAE702257EE745
:101D44007B1E0008A9220008FF0540002DE9F04190
:101D5400044686B016461F46884641B9836B43F055
:101D6400006383630125284606B0BDE8F08190F83E
:101D74003450EDB2012D75D1C16DF31800228B42A0
:101D8400826304D9836B43F000738363EBE703231B
:101D940080F8343000683449C262C36B43F01A03DC
:101DA400C363E36BD962314959639A63636C4FF43B
:101DB4000071012B18BF760200F029FE48B1236898
:101DC4002B4A9A63A36B01251843A06384F834500B
:101DD400C9E7012F13D9A02323633146206800F0FB
:101DE40076FE0646226888B1214B9363A36B0125D6
:101DF4001E430023A66384F834502363B3E790237F
:101E040023633146206800F04AFEEAE7D36AE06BB8
:101E140043F008037F02D3624146BB088032FEF7D9
:101E2400DCFF054678B12368DA6B22F49572DA6335
:101E34000F4A9A63A36B012543F08043A36384F89C
:101E4400345026638FE74FF0FF338DE888009023EA
:101E5400029369460123206803960496059300F0D3
:101E6400C4FD80E702257EE7191C0008A9220008AA
:101E7400FF054000704710B5846A236B822B09D19B
:101E8400206800F03DFE28B1A36B1843A0632046F0
:101E9400FFF7F0FF2368DA6A22F00802DA6240F200
:101EA4003A529A63012384F8343000232363204692
:101EB40001F029F810BD0000436E9A0F0A70C3F3B5
:101EC40083624A70C3F301628A70C3F30742CA7023
:101ED400C3F30722DBB20A714B71836E1A0DCA80F9
:101EE400C3F303420A72C3F3C0324A72C3F38032AB
:101EF4008A72C3F34032CA72C3F300320A730022F7
:101F04004A73426C10B5002A6BD1C26E40F6FC7461
:101F140004EA830343EA92730B61C2F3C2630B7551
:101F2400C2F302634B75C2F342538B75C2F382430F
:101F3400C2F3C232CB750A760B690A7E02F007023D
:101F440002320133934043650A7A02F00F040122FE
:101F5400A2408265520A5343C3654FF4007303667B
:101F6400C36EC3F380324A76C3F3C61203F07F0311
:101F74008A76CB76036FDA0F0A77C3F341724A7716
:101F8400C3F382628A77C3F38352CA77C3F340529E
:101F940081F820200020C3F3004281F8210081F859
:101FA4002220C3F3C03281F82320C3F3803281F8A6
:101FB4002420C3F3403281F82520C3F3003281F892
:101FC4002620C3F3812281F82720C3F30122C3F31F
:101FD400460381F8282081F82930012381F82A302A
:101FE40010BD012A0FD1B0F86E201B0403F47C133A
:101FF40013430B610B6901339B024365C3654FF4C3
:1020040000738365ABE70368054A9A63836B43F007
:1020140080538363012380F83430184610BD00BF19
:10202400FF05400070B598B0002307930893099307
:102034000A930B9376230C930AAB044693E80700A8
:102044008DE8070007AB0ECB206800F095FC18B1B3
:102054000125284618B070BD2068436823F48073B6
:10206400436000F0A5FC05460028F1D122685368BE
:1020740043F480735360022001F038FB2068069516
:1020840000F070FD064670B9206800F093FD00284A
:1020940073D0A6644FF6FF75069B5A1CAB4206929A
:1020A40008D14FF08076012584F83450A16B0E439B
:1020B400A663CEE70021206800F0B8FD014610B108
:1020C4004FF08056EFE7206800F0C8FD0146002875
:1020D400F6D1206800F086FC0028DDDA0023636472
:1020E40020680123ADF8163000F066FC002800F0EB
:1020F4009580636C032B19D0206800F0C8FD00287C
:1021040064D10146206800F06DFC042160672068FA
:1021140000F068FC0821A067206800F063FC0C2133
:10212400E067206800F05EFCC4F88000636C032B59
:1021340045D1636C032B50D10421206800F052FC7C
:10214400000DE0640DA92046FFF7B6FE0546002801
:1021540061D1226D03461204206800F0EBFC0028D4
:1021640034D104F1100393E807008DE80700231D20
:102174000ECB206800F000FC6BE70123A3644FF64C
:10218400FF75069B5A1CAB4206928AD00021206838
:1021940000F04CFD0646002885D14FF080412068B0
:1021A40000F05CFD064600287FF47DAF0146206800
:1021B40000F018FCC30FE4D042008FD58FE70DF177
:1021C4001601206800F08EFD0028B2D0012584F8A5
:1021D4003450A16B0843A0633BE7BDF8161021659A
:1021E4002068090400F068FD0028EFD1014620684A
:1021F40000F0F8FB04216066206800F0F3FB08217E
:10220400A066206800F0EEFB0C21E066206800F078
:10221400E9FB206790E74FF08050D7E74FF08060EC
:10222400D4E710B5044608B9012010BD90F8343045
:1022340003F0FF0213B9027701F07CF9032384F859
:1022440034302046FFF7EEFE0028EDD10123A063D1
:10225400206384F8343010BD436C0B60836C4B6096
:10226400C36C8B60036DCB60436D0B61836D4B61FD
:10227400C36D8B61036ECB6100207047016D10B597
:1022840009040446006800F07BFD014628B9206873
:1022940000F0A8FBC0F3432010BDA36B1943A16356
:1022A4000020F7E710B5846A236CDA6BE36B012A2C
:1022B400DB6B01D0012B1CD12368104A9A63DA6BC3
:1022C40022F49D72DA63A36B43F08043A363204638
:1022D400FFF7D4FF0538C0B2012805D8206800F004
:1022E4000FFCA36B1843A063012384F8343000234C
:1022F40023632046FFF7BEFD10BD00BFFF0540006D
:102304000268C169F8B50446836800691568034327
:1023140060690343AF480B43284003431360536889
:10232400E06823F4405303435360AB4BA0699A42E3
:102334001CBF236A1843936823F4306303439360F8
:10234400A64B9A4218D103F55843A54AD3F88830CE
:1023540003F00303B1F5004FD35C40F02381082B55
:1023640077D8DFE813F00001B300E20076001C0127
:1023740076007600760036009A4B9A4207D103F530
:10238400E633994AD3F8883003F00C03E2E7974B1D
:102394009A4223D103F5E433D3F8883003F03003B1
:1023A400102B00F0F9800BD8002B00F0D980B1F588
:1023B400004F4FF001024FF0000300F0DE8091E087
:1023C400202B00F0AF80302BF1D1B1F5004F40F05D
:1023D400A1806068430803F58033ACE0844B9A42E3
:1023E4001CD103F5E233D3F8883003F0C003402B4B
:1023F40000F0AF8006D8002B00F0A080764B9A4204
:10240400D5D126E0802B00F08A80C02BF6D1724B08
:102414009A42DAD14FF40040082315E06E4B9A42F9
:10242400C5D103F5C833D3F8883003F44063B3F55A
:10243400806F00F08E80DED9B3F5006F6FD0B3F5F6
:10244400406FE3E76B480223626802EB420181427A
:1024540005D901220023236663661046F8BDB0EB5C
:10246400023FF6D8082B2ED8DFE803F0052D1C2DEB
:10247400242D2D2D2700FFF795F962684FF4807104
:1024840056080027E1FB0067002330463946FEF773
:1024940089FA0022584BA0F540719942D9D8236893
:1024A400D860D7E75548550800230021401941F169
:1024B4000001ECE7FEF718FEDFE7500800210023D7
:1024C40010F50000F3E701220020E3E7FFF77AF9B3
:1024D4004BE0FFF767F9626800EB5203B3FBF2F3DA
:1024E4009BB20022A3F110004FF6EF718842B0D8DE
:1024F4002168CB60AEE7FFF765F9ECE76068430855
:1025040003F5740303F51053B3FBF0F3E8E7FEF7A8
:10251400EBFDE0E76068430803F50043F4E72E4B66
:102524009A428FD0B1F5004FE8D16068430803F1B7
:10253400F47303F59043B3FBF0F31CE0264B9A428B
:102544000ED1FFF72FF9002300287FF47DAF024658
:1025540080E7214B9A421FD1FEF7C6FD0423F3E71F
:10256400B1F5004FB5D1FFF71DF961684A0802EBD8
:102574004003B3FBF1F39BB20022A3F110004FF62A
:10258400EF7188423FF665AF23F00F012068C3F373
:1025940042030B43C3605DE7B1F5004FB7D1FEF7CB
:1025A400A3FDE2E7082B3FF654AF01A252F823F053
:1025B400D7240008FB24000801250008572400083C
:1025C400132500085724000857240008572400083E
:1025D40019250008F369FFEF00800040003801402E
:1025E400E037000800440040E43700080048004099
:1025F400004C00400024F400FFFC0F00000024F411
:10260400436ADA0710B506D50168846A4A6822F479
:10261400003222434A609C0706D50168C46A4A68AE
:1026240022F4803222434A60590706D50168046BBC
:102634004A6822F4802222434A601A0706D50168B8
:10264400446B4A6822F4004222434A60DC0606D501
:102654000168846B8A6822F4805222438A60990656
:1026640006D50168C46B8A6822F4005222438A604A
:102674005A060FD50168046C4A6822F4801222437A
:10268400B4F5801F4A6005D14A68446C22F4C00244
:1026940022434A601B0606D50268816C536823F402
:1026A40000230B43536010BD2DE9F041069D044601
:1026B4000F46164698462168CA6937EA02030CBFDA
:1026C40001220022B24202D00020BDE8F0816B1C3E
:1026D400F2D09DB923681A6822F4D0721A609A68FD
:1026E40022F001029A60202384F8713084F8723059
:1026F400002384F870300320BDE8F08101F00EF867
:10270400A0EB08008542D6D2E4E773B50446002660
:10271400466701F003F823681B681A07054617D4B7
:1027240023681B685B070AD56FF07E430093002281
:102734002B464FF480012046FFF7B6FFA0B92023B3
:10274400002084F8713084F8700084F872300CE052
:102754006FF07E430093324603464FF40011204647
:10276400FFF7A2FF0028DBD0032002B070BD10B534
:10277400044660B390F8713003F0FF021BB980F88F
:10278400702000F00BFF2268242384F87130136852
:1027940023F0010313602046FFF7B2FD012816D091
:1027A400636A13B12046FFF72BFF23685A6822F4AB
:1027B40090425A609A6822F02A029A601A6842F09B
:1027C400010220461A60BDE81040FFF79EBF0120B9
:1027D40010BD0000114B4FF4FA521B68B3FBF2F228
:1027E40041F28833534313F1FF3313D3426B12F096
:1027F400450FF8D0436B5B0703D504238363184666
:102804007047436B13F0010301D00123F6E7C5229F
:102814008263F4E74FF00043F1E700BFEC47002088
:102824000E4B4FF4FA521B68B3FBF2F241F28833B9
:10283400534313F1FF330DD3426B12F0450FF8D01D
:10284400436B13F0040315BF0423C522836382631F
:10285400184670474FF00040704700BFEC47002017
:10286400434B10B51B684FF4FA54B3FBF4F35A43CB
:10287400002A48D0436B13F0450F02F1FF32F7D022
:10288400436B5B0703D504238363184610BD436B76
:10289400DC0703D501238363012010BD0369DBB288
:1028A4009942F9D1C523836343693248184000280B
:1028B4005CD0002B2ADB5A002BD49C002BD4D900EB
:1028C4002BD41A012CD45C012DD4D9012ED41A0294
:1028D4002FD45C0230D4990231D4DA0232D45C03AE
:1028E40033D4990334D4DA0335D41C0436D45904CC
:1028F40037D49A0438D413F0080F14BF4FF40000EF
:102904004FF4803010BD4FF0004010BD4FF0007008
:1029140010BD402010BD802010BD4FF4807010BD4C
:102924004FF4007010BD4FF4806010BD4FF4006090
:1029340010BD4FF4805010BD4FF4005010BD4FF443
:10294400804010BD4FF4004010BD4FF4003010BD66
:102954004FF4802010BD4FF4002010BD4FF48010C0
:1029640010BD4FF4001010BD4FF4800010BD00BF27
:10297400EC47002008E0FFFD84B010B503AC84E808
:102984000E000499039B42680B4305990B43069977
:102994000B4307990B430899BDE8104022F4FD420C
:1029A4000B4322F07F021343436004B000207047BE
:1029B4000323036000207047006800F003007047A1
:1029C4000B688360C3684A6823F47F6323F00F03B2
:1029D40013438A681343CA6813430A691343C360E1
:1029E400002070471430405870470B6843624B68AE
:1029F4008362C36A8A6823F0F7031343CA681343E4
:102A04000A6913434A691343C3620020704730B50F
:102A140087B04023039300230546019110240493B7
:102A240001A94FF4806305930294FFF7C9FF41F2B3
:102A3400883221462846FFF713FF07B030BD30B572
:102A440087B0402303930023054601911124049386
:102A540001A94FF4806305930294FFF7B1FF41F29B
:102A6400883221462846FFF7FBFE07B030BD30B55B
:102A740087B0402303930023054601911224049355
:102A840001A94FF4806305930294FFF799FF41F283
:102A9400883221462846FFF7E3FE07B030BD30B543
:102AA40087B040230393002305460191182404931F
:102AB40001A94FF4806305930294FFF781FF41F26B
:102AC400883221462846FFF7CBFE07B030BD30B52B
:102AD40087B04023039300230546019119240493EE
:102AE40001A94FF4806305930294FFF769FF41F253
:102AF400883221462846FFF7B3FE07B030BD0000F8
:102B040030B587B00023054601930C24402204937A
:102B140001A94FF48063039205930294FFF750FFD9
:102B2400034A21462846FFF79BFE07B030BD00BF8D
:102B340000E1F50530B587B0402303930023054633
:102B44000724049301A94FF480630192059302942E
:102B5400FFF736FF41F2883221462846FFF780FE10
:102B640007B030BD10B586B00023019302930393E0
:102B7400049301A94FF4806305930446FFF720FFF3
:102B84000B4B4FF4FA521B68B3FBF2F241F2883359
:102B9400534313F1FF3307D3626B1206F9D5C523F0
:102BA400A363002006B010BD4FF00040FAE700BF59
:102BB400EC47002010B586B04FF4D5730193082379
:102BC4000293402303930023049301A94FF48063E9
:102BD40005930446FFF7F4FE134B4FF4FA521B68B7
:102BE400B3FBF2F241F28833534313F1FF3318D3AA
:102BF400626B12F0450FF8D0636B5B0703D50420BA
:102C0400A06306B010BD626B12F0010201D0012076
:102C1400F6E7606B10F04000F3D04023A363104646
:102C2400EFE74FF00040ECE7EC47002030B587B009
:102C3400402303930023054601913724049301A9FB
:102C44004FF4806305930294FFF7BAFE41F2883291
:102C540021462846FFF704FE07B030BD10B586B004
:102C64002923029341F000414023039341F480114E
:102C7400002304460191049301A94FF48063059352
:102C8400FFF79EFE2046FFF7CBFD06B010BD10B542
:102C940086B0002302220446019302920493C022C8
:102CA4004FF4806301A903920593FFF789FE204640
:102CB400FFF790FD06B010BD10B586B0092302934E
:102CC400C0230393002304460191049301A94FF404
:102CD40080630593FFF774FE2046FFF77BFD06B083
:102CE40010BD000030B587B0002303220193029287
:102CF400049340224FF480630D4601A90392059387
:102D04000446FFF75DFE1D4B4FF4FA521B68B3FBFC
:102D1400F2F241F28833534313F1FF3326D3626B4B
:102D240012F0450FF8D0636B580703D50420A06355
:102D340007B030BD636BD90701D50120F7E72369DC
:102D4400DBB2032B15D1C523A363636913F460407D
:102D540002D11B0C2B80EBE75A040CD413F4004F64
:102D640014BF4FF480504FF48030E1E74FF000403F
:102D7400DEE70120DCE74FF40050D9E7EC47002000
:102D840030B587B0402303930023054601910D24F9
:102D9400049301A94FF4806305930294FFF710FE96
:102DA40041F2883221462846FFF75AFD07B030BD6C
:102DB40030B50F4B5D7A05F0FF04B5B95D7A5C550B
:102DC4005D7A03EB85056860587A184402725A7A72
:102DD400D2B2501CC0B258723A2330324B702F23F7
:102DE4000A708B70CC70204630BD012030BD00BF0E
:102DF4000C4800200022FFF7DBBF0000014B1860E5
:102E0400704700BF704800204FF0904370B55A6976
:102E140042F480725A61104A1168104A4C69146075
:102E2400107012684A615A690D4C22F480725A611A
:102E34006668FEF7B1FC0E250A4BB0FBF3F0454380
:102E440063689B1BAB42FBD34FF09042536943F43E
:102E54008073536170BD00BF704800207448002027
:102E6400001000E040420F0008B59F20FFF7CCFFA0
:102E7400BF20FFF7C9FFDF20FFF7C6FFFF20BDE833
:102E84000840FFF7C1BF000007B501238DF80730E4
:102E94009DF80730012B05D10348FFF7C2F903B0B1
:102EA4005DF804FB0220FAE7E04C002008B5134665
:102EB4000A4601460348FEF7B5FE003018BF01205C
:102EC40008BD00BFE04C002008B513460A46014681
:102ED4000348FEF73BFF003018BF012008BD00BFC8
:102EE400E04C002008B50348FFF7C8F9043818BFC0
:102EF400012008BDE04C002001460148FFF7ACB9B1
:102F0400E04C0020704708B5FFF7FCFF08BD000047
:102F140008B503490348FFF76DFF034B187008BD5C
:102F240079480020F4370008784800202DE9F84358
:102F34002DED048BFFF798FF2C4A2D492D4DDFF81A
:102F4400E080DFED2D8A2D4F002414602C4A14708C
:102F54002C4A14602C4A14602C4A14602C4A1460C5
:102F64002C4A14602C4A14602C4A00261160B7EED7
:102F7400009A4FF0010964B92C60C8F8009001343C
:102F8400102CF8D1BDEC048BC820BDE8F84300F048
:102F9400ADBB07EE904AF8EEE77A88EEA78A18EE02
:102FA400100AFDF779FA02460B4630463946FDF71A
:102FB400F1FB32463B46FDF7C3FAFDF7D3FC78EE4E
:102FC400097A45F8240017EE900AFDF765FA0246DF
:102FD4000B4630463946FDF7DDFB32463B46FDF7EE
:102FE400AFFAFDF7BFFC48F82400C8E734480020D6
:102FF400E967B541A44D002000442C4700408F40B0
:1030040024480020404800202C4800202848002064
:1030140020480020304800203C4800203848002048
:10302400644D002070B5B0B04FF480730893102342
:103034000224099301260A23072505A805940F9461
:10304400109411961293139514941594FEF7B4F8F2
:1030540000B1FEE70F2203230290039004900421A1
:1030640068468DE80C00FEF705FB00B1FEE7184B3F
:1030740016934FF080632B9308231F9019931A958E
:103084004FF48013042516A8179418961B951C94C6
:103094001D93FEF733FC00B1FEE74FF40070FDF71B
:1030A400ADFF044600B1FEE7FEF776FB4FF47A73FA
:1030B400B0FBF3F0FDF76AFE2846FDF77DFE2246DD
:1030C40021464FF0FF30FDF72DFE30B070BD00BF3C
:1030D400020008002DE9F04F894E8A4B8A4D336077
:1030E4008DB08A4B2B60FDF7F9FDFFF79BFF884BF2
:1030F4008848DA6C42F00402DA64DA6C02F0040202
:103104000292029ADA6C42F08002DA64DA6C02F01B
:1031140080020392039ADA6C42F00102DA64DA6CF8
:1031240002F001020492049ADA6C42F00802DA64B2
:10313400DA6C02F008020592059ADA6C42F0020297
:10314400DA64DB6C03F002030693002240F2FF21F1
:10315400069BFDF745FF00224FF408714FF09040A5
:10316400FDF73EFF4FF400530024079307A96A4B71
:103174006848089301270994FDF770FE40F2FF2385
:1031840007A964480793089709940A94FDF766FE13
:103194004FF4087307A94FF09040079308970994D8
:1031A4000A94FDF75BFE5D485D4A84604FF4E133A9
:1031B40080E80C000C23C460046143618461C46131
:1031C40004624462FFF7D3FAB046A94600B1FEE7B1
:1031D400544B554A1A6058609860D8601861586119
:1031E4009861524CDFF868A1514FFFF791FE00F04F
:1031F40025FA4848FFF702FEFFF798FE40232360B4
:1032040000262268DFF84CB14A481BF802300370EC
:10321400511C622B2160484D61D017D8502B59D0D6
:10322400612B35D04F2B16D10620FFF7EDFD236817
:103234005A1C1BF803002260FFF7E6FD3F4BD3ED59
:10324400007AFCEEE77AC5ED007A04E0662B4CD0F8
:1032540013D8632B46D0D5F800B0394D6A68019273
:10326400FEF79AFA019A374BB0FBF3F00BFB00FB25
:103274006B689B1A5B45FBD3C3E7A3F170020F2A6B
:10328400E9D803F00F03304A52F823302B60E2E709
:103294001BF801309FED2D7AD11C5A44216092789D
:1032A40003EB022307EE903AF8EEE77AC7EE276ABB
:1032B40016EE900AFDF7F0F802460B463046394602
:1032C400FDF768FA32463B46FDF73AF9FDF74AFB4B
:1032D4002860C0E7023222601BF80100ACE7D8ED99
:1032E400007AAEE7D9ED007AABE7DAF8003013B92B
:1032F4004023CAF80030DAF800302360ABE700BF9F
:103304001C480020553582461848002000409C4641
:10331400001002400008004800002110E44D002085
:1033240000440040E04C00200028014034480020C4
:1033340000408F40244800203048002038480020B6
:10334400001000E040420F00644D002000442C4770
:103354002C4800200000002010B5064C01232370E7
:10336400FFF7C0FD234618B9227802F0FE0222704E
:10337400187810BDEA47002010B5054C01232370CE
:10338400FFF782FD10B9FFF7E7FF2070207810BD2A
:10339400EA470020FFF7E0BF70B5164C0846114617
:1033A400002222601A46FFF781FD08B1012070BD9A
:1033B40000F0B4F947F22F55064623689BB1236801
:1033C400002BF3D00023236000F0A8F947F22F5418
:1033D400054600F0A3F9401BA042E7D8FFF782FDA1
:1033E4000028F6D170BD00F099F9801BA842E4D9F9
:1033F400E5E700BF4448002070B5164C0846114666
:10340400002222601A46FFF75FFD08B1012070BD5B
:1034140000F084F947F22F55064623689BB12368D0
:10342400002BF3D00023236000F078F947F22F54E7
:10343400054600F073F9401BA042E7D8FFF752FDA0
:103444000028F6D170BD00F069F9801BA842E4D9C8
:10345400E5E700BF4848002010B5124B1B78DB0796
:1034640088B014461BD4032903D8DFE801F0100503
:103474000B12042008B010BD6846FFF73DFD069B03
:10348400236004E06846FFF737FD079B2380002094
:10349400F0E76846FFF730FD079B5B0AF0E703207F
:1034A400E8E700BFEA470020214B07B51A6E42F057
:1034B40001021A661A6E02F001020092009A9A6DD5
:1034C40042F080529A659B6D03F080530193032070
:1034D400019BFDF715FC002211466FF00B00FDF770
:1034E40021FC002211466FF00A00FDF71BFC0022AC
:1034F40011466FF00900FDF715FC002211466FF02C
:103504000400FDF70FFC002211466FF00300FDF7E5
:1035140009FC002211466FF00100FDF703FC0022B4
:1035240011464FF0FF30FDF7FDFB03B05DF804FBDF
:1035340000100240F0B50268154B9A4287B024D1BE
:1035440003F5684302271A6E124842F480621A6631
:103554001B6E029703F480630093009B00264FF4D4
:10356400885303250C2401A901930396049505941B
:10357400FDF774FC04230DEB030107480193029744
:10358400039604950594FDF769FC07B0F0BD00BFF0
:103594000028014000080048000C00487FB502687C
:1035A4000F4B9A4219D103F5E63301A99A6D42F4FF
:1035B40000329A659B6D03F400330093009B0C2347
:1035C40001930223029300230393032304934FF0F4
:1035D400904007230593FDF741FC07B05DF804FB19
:1035E4000044004008B500F049F8BDE80840FDF784
:1035F400F0BB00000F49D1F8883043F47003C1F8E0
:1036040088300D4B1A68002042F001021A6098605D
:103614001A6822F0A85222F410221A604FF4805241
:10362400DA601A6822F480221A6098614FF000630D
:103634008B60704700ED00E0001002400C4BDA682C
:1036440022F08072DA60DA6842F08072DA60094B44
:103654001A6822F001021A601A6842F001021A6024
:1036640000225A605A6800BF00BF5868801A704729
:10367400F0ED00E0001000E070470000184AF8B5D3
:10368400136801331360174B1A6812B11A68013AB0
:103694001A60154E002537463378ECB2A34202D89F
:1036A400FFF7EAFFF8BDA40033195868B0B10378F6
:1036B4009B0713D583680BB1013B836083686BB9A7
:1036C4003C44C368016998476268536893601378FF
:1036D40013F0010104BF61F3410313700135DBE70B
:1036E40064480020684800204C480020EFF305831C
:1036F40013B1084B38B97047074B19681A68521A46
:103704009042FBD870471A68D20348BF00F1FF30DB
:10371400F0E700BF10E000E064480020014B1868A7
:10372400704700BF64480020DFF834D0002103E074
:103734000C4B5B58435004310B480C4B42189A42D3
:10374400F6D30B4A02E0002342F8043B094B9A42A9
:10375400F9D3FFF74FFF00F011F8FFF7BBFCFEE7CA
:10376400008002206038000800000020F04700209C
:10377400F04700205C4E0020FEE7000070B50D4EBF
:103784000D4CA41BA4100025A54209D10B4E0C4CD2
:1037940000F018F8A41BA4100025A54205D170BDA3
:1037A40056F8253098470135EEE756F82530984706
:1037B4000135F2E75838000858380008583800082E
:1037C4005C380008F8B500BFF8BC08BC9E467047DA
:0C37D400F8B500BFF8BC08BC9E4670476A
:1037E0000104020800101010041010100210101034
:1037F000080000007D330008993300089D3300085D
:10380000FD3300085D3400080000000000000000E7
:103810000102030406070809000000000102030476
:10382000A0860100400D0300801A060000350C0040
:1038300040420F0080841E0000093D0000127A0003
:103840000024F40000366E010048E801006CDC0240
:0838500088D1FF7F0100000098
:04385800B9010008AA
:04385C0095010008CA
:1038600056676D20E647000001010000949E360077
:1038700000000000C646000020391F0002020000C0
:1038800080251E003C000000000000000000000039
:103890000000000000000000000000000000000028
:1038A0005084500B50A0501450CF500E50E4509301
:1038B00050B350D250F2626250B450F36250F6628C
:1038C00050F862509F50BF50DF50FA6250E450935E
:1038D00050B350D26250F26250B450F36250F6626C
:1038E00050F862509F50BF50DF50FA6250FF613A6B
:1038F00011508F500E50AB501A50C0501450E4501D
:103900009350B350D26250F26250B450F36250F60A
:103910006250F86250B550FA6250FC6250FE62503C
:103920009450FF617C0B5084500B50A0501450CF2A
:10393000500E50E4509350B36250F26250B450F3C2
:103940006250F66250F86250B550FA625089500CDD
:1039500050A7501650CD501050E450B36250F26250
:1039600050B450F36250F66250F86250B550FA62AB
:103970005086500D50A3501950CE501250E450B301
:103980006250F26250B450F36250F66250F86250E6
:10399000B550FA62508E500B50A3501550CE500FB8
:1039A00050E450B36250F26250B450F36250F66289
:1039B00050F862509F50BF50DF50FA6250E450936D
:1039C00050B350D26250F26250B450F36250F6627B
:1039D00050F862509F50BF50DF50FA6250FF613A7A
:1039E000115089500C50A7501650CD501050E45033
:1039F0009350B350D26250F26250B450F36250F61A
:103A00006250F862509F50BF50DF50FA6250E4504D
:103A10009350B350D26250F26250B450F36250F6F9
:103A20006250F862509F50BF50DF50FA6250FF6101
:103A30003A11508D501050AF501D50C7501650E4E1
:103A4000509350B350D26250F26250B450F362506F
:103A5000F66250F862509F50BF50DF50FA6250E457
:103A6000509350B350D26250F26250B450F362504F
:103A7000F66250F862509F50BF50DF50FA62508D8E
:103A8000501050AF501D50C7501650E4509F50BFBB
:103A900050DF50FA5089500A50A5502A50C9500C96
:103AA00050E4509650B250D562509350D650F362C5
:103AB000509150B350F86250FD62509250D750FB75
:103AC0006250B450FD6250E450936250D850F3629B
:103AD00050F86250FD6250D950FB6250FD6250AC0C
:103AE000502550E4509850B250D562509550D65061
:103AF000F362509350B350F86250FD62509450D727
:103B000050FB6250B450FD6250E450956250D85062
:103B1000F36250F86250FD6250D950FB6250FD6272
:103B200050AB501F50E450B26250DA50F26250B3C2
:103B300050F36250F66250DB50F862508B500A50DE
:103B4000B450FA6250FC625089500A509650DC50D2
:103B5000FE6250FF625087500A62625089500A50DC
:103B6000DD6250A5502A50E4509D50B250DA6250A8
:103B70009A50DB50F562509850B350FA6250FF6291
:103B8000509950DC50F46250B450FF6250AB501F5B
:103B900050E6509A50B26250DD50F46250B3625019
:103BA000F56250DE50F76250B450F86250E4625053
:103BB000DF50F56250FA6250FF6250F462508B5051
:103BC0000A50FF6250E450B2625089500A509B5034
:103BD000F26250B350F3625087500A50F66250F8C8
:103BE000625089500A50B450FA625083501550CB3D
:103BF000501F509650D450FC62509350D550FE62E6
:103C0000509150FF62625080501450CF501D50961A
:103C100050D462509350D56250AC502550E450912E
:103C200050B26250F362508E501250C4501C5096E5
:103C300050B350D450F862509350D550FD6250911B
:103C400050FB6250B450FD62508E500F50AB501F6D
:103C500050C3501550E4509650B250D46250935017
:103C6000D550F262509150B350F36250F6625092C8
:103C700050D650F86250B450FA625082500E50CE76
:103C80005012509650D450FC62509350D550FE6262
:103C9000509150FF6262509250D662625089500C2F
:103CA00050AC502550CD501050E6509650B250D4E4
:103CB00062509350D550F462509150B36250F56207
:103CC000509250D650F76250B450F86250E650937C
:103CD0006250D750F4626250F56250D850F762508B
:103CE000F8625089500A50A5502A50C9500C50E42F
:103CF000509650B250D462509350D550F3625091C8
:103D000050B350F86250FD62509250D650FB625052
:103D1000B450FD6250E450936250D750F36250F8B3
:103D20006250FD6250D850FB6250FD6250AC50258D
:103D300050E4509A50B250D762509750D850F36226
:103D4000509550B350F86250FD62509650D950FBD8
:103D50006250B450FD6250E450976250DA50F36202
:103D600050F86250FD6250DB50FB6250FD6250AB78
:103D7000501F50E4509D50B250DA62509A50DB50C0
:103D8000F262509850B350F36250F662509950DC92
:103D900050F86250B450FA62509A50FC6250DD50B4
:103DA000FE6250FF626250DE62625084500B50A58A
:103DB000502A50C2500E50E4509650B250D4625027
:103DC0009350D550F562509150B350FA6250FF6253
:103DD000509250D650F46250B450FF6250AB501F16
:103DE00050E6509350B26250D750F46250B36250D4
:103DF000F56250D850F76250B450F86250E4625007
:103E0000D950F56250FA6250FF6250DA50F46250B5
:103E100086500B50FF6250AC502550E450B26250B7
:103E200084500B509450DB50F26250B350F3625008
:103E300082500B50F66250F8625084500B50B450D0
:103E4000DC50FA62508E501250C35019509650D424
:103E500050FC62509350D550FE62509150FF626208
:103E6000509250D66262508E500F50A5502A50C3C7
:103E7000501550E4509650B250D462509350D550E3
:103E8000F362509150B350F86250FD62509250D698
:103E900050FB6250B450FD625082500E50AB501F28
:103EA00050CE501250E4509650B250D462509350BD
:103EB000D550F262509150B350F36250F662509276
:103EC00050D650F86250B450FA625086500D50CD22
:103ED0005011509650D450FC62509350D550FE6211
:103EE000509150FF6262509250D662625089500CDD
:103EF00050A4501C50CD501050E6509650B250D4A3
:103F000062509350D550F462509150B36250F562B4
:103F1000509250D650F76250B450F86250E6509329
:103F20006250D750F4626250F56250D850F7625038
:103F3000F8625089500A50A5502A50C9500C50E4DC
:103F4000509650B250D462509350D550F362509175
:103F500050B350F86250FD62509250D650FB625000
:103F6000B450FD6250E450936250D750F36250F861
:103F70006250FD6250D850FB6250FD6250AC50253B
:103F800050E4509850B250D562509550D650F362DC
:103F9000509350B350F86250FD62509450D750FB8C
:103FA0006250B450FD6250E450956250D850F362B4
:103FB00050F86250FD6250D950FB6250FD6250AB28
:103FC000501F50E450B26250DA50F26250B350F3D6
:103FD0006250F66250DB50F862508B500A50B45079
:103FE000FA6250FC625089500A509650DC50FE62D2
:103FF00050FF625087500A62625089500A50DD6259
:1040000050A5502A50E4509D50B250DA62509A5058
:10401000DB50F562509850B350FA6250FF625099ED
:1040200050DC50F46250B450FF6250AB501F50E669
:10403000509A50B26250DD50F46250B36250F56253
:1040400050DE50F76250B450F86250E46250DF50D6
:10405000F56250FA6250FF6250F462508B500A5081
:10406000FF6250E450B2625089500A509B50F26295
:1040700050B350F3625087500A50F66250F86250C5
:1040800089500A50B450FA625083501550CB501FDB
:10409000509650D450FC62509350D550FE625091CF
:1040A00050FF62625080501450CF501D509650D433
:1040B00062509350D56250AC502550E4509150B2AC
:1040C0006250F362508E501250C4501C509650B340
:1040D00050D450F862509350D550FD62509150FB2F
:1040E0006250B450FD62508E500F50AB501F50C301
:1040F000501550E4509650B250D462509350D55061
:10410000F262509150B350F36250F662509250D622
:1041100050F86250B450FA625082500E50CE501295
:10412000509650D450FC62509350D550FE6250913E
:1041300050FF6262509250D662625089500C50AC6F
:10414000502550CD501050E6509650B250D4625089
:104150009350D550F462509150B36250F562509232
:1041600050D650F76250B450F86250E65093625007
:10417000D750F4626250F56250D850F76250F8623E
:104180005089500A50A5502A50C9500C50E45096FE
:1041900050B250D462509350D550F362509150B306
:1041A00050F86250FD62509250D650FB6250B450AD
:1041B000FD6250E450936250D750F36250F8625061
:1041C000FD6250D850FB6250FD6250AC502550E467
:1041D000509850B250D662509550D750F3625093D9
:1041E00050B350F86250FD62509450D850FB62506A
:1041F000B450FD625084500B50C2500E50E45096A3
:1042000050D462509350D550F362509150F86250A0
:10421000FD62509250D650FB6250FD6250AB501F71
:1042200050E4509350B26250D750F26250B350F302
:104230006250F66250D850F86250B450FA6250FCA6
:104240006250D950FE6250FF626250DA625086506E
:104250000B6250A5502A50E450B2625084500B506B
:104260009450DB50F56250B350FA625082500B50BC
:10427000FF6250F4625084500B50B450DC50FF6227
:1042800050AB501F50E650B2625086500B50DF507A
:10429000F46250B3625084500B50F56250F7625094
:1042A00082500B50B450F8625089500C50CE500FD1
:1042B00050E4509650D462509350D550F5625091CE
:1042C00050FA6250FF62509250D650F46250FF6232
:1042D0005084500B50AC502550C2500E50E45096B4
:1042E00050B250D462509350D550F262509150B3B6
:1042F00050F36250F662509250D650F86250B4506B
:10430000FA625089500C50CE500F509650D450FC49
:1043100062509350D550FE62509150FF62625092AD
:1043200050D662625082500E50A5502A50CD501087
:1043300050E4509650B250D462509350D550F3622E
:10434000509150B350F86250FD62509250D650FBDD
:104350006250B450FD625089500C50AB501F50CE8B
:10436000500F50E4509650B250D462509350D550F4
:10437000F262509150B350F36250F662509250D6B0
:1043800050F86250B450FA625082500E50CD501026
:10439000509650D450FC62509350D550FE625091CC
:1043A00050FF6262509250D66262508E500F50A4FD
:1043B000501C50CE501250E6509650B250D462501D
:1043C0009350D550F462509150B36250F5625092C0
:1043D00050D650F76250B450F862508E501250C30D
:1043E000501950E6509650D462509350D550F46214
:1043F00050916250F562509250D650F76250F86278
:104400005089500A50A5502A50C9500C50E450967B
:1044100050B250D462509350D550F362509150B383
:1044200050F86250FD62509250D650FB6250B4502A
:10443000FD6250E450936250D750F36250F86250DE
:10444000FD6250D850FB6250FD6250AC502550E4E4
:10445000509850B250D562509550D650F362509358
:1044600050B350F86250FD62509450D750FB6250E8
:10447000B450FD6250E450956250D850F36250F849
:104480006250FD6250D950FB6250FD6250AB501F2C
:1044900050E450B26250DA50F26250B350F36250BE
:1044A000F66250DB50F862508B500A50B450FA62FA
:1044B00050FC625089500A509650DC50FE6250FF0A
:1044C000625087500A62625089500A50DD6250A5DE
:1044D000502A50E4509D50B250DA62509A50DB504E
:1044E000F562509850B350FA6250FF62509950DC18
:1044F00050F46250B450FF6250AB501F50E6509AD7
:1045000050B26250DD50F46250B36250F56250DE3A
:1045100050F76250B450F86250E46250DF50F562D8
:1045200050FA6250FF6250F462508B500A50FF62A2
:1045300050E450B2625089500A509B50F26250B31E
:1045400050F3625087500A50F66250F8625089501A
:104550000A50B450FA625083501550CB501F5096F9
:1045600050D450FC62509350D550FE62509150FF91
:1045700062625080501450CF501D509650D46250FB
:104580009350D56250AC502550E4509150B26250D7
:10459000F362508E501250C4501C509650B350D4F9
:1045A00050F862509350D550FD62509150FB6250CC
:1045B000B450FD62508E500F50AB501F50C3501579
:1045C00050E4509650B250D462509350D550F2629D
:1045D000509150B350F36250F662509250D650F85A
:1045E0006250B450FA625082500E50CE5012509623
:1045F00050D450FC62509350D550FE62509150FF01
:104600006262509250D662625089500C50AC502574
:1046100050CD501050E6509650B250D46250935046
:10462000D550F462509150B36250F562509250D61A
:1046300050F76250B450F86250E650936250D75031
:10464000F4626250F56250D850F76250F8625089B7
:10465000500A50A5502A50C9500C50E4509650B200
:1046600050D462509350D550F362509150B350F8EB
:104670006250FD62509250D650FB6250B450FD62C1
:1046800050E450936250D750F36250F86250FD628C
:1046900050D850FB6250FD6250AC502550E4509A07
:1046A00050B250D762509750D850F362509550B3E3
:1046B00050F86250FD62509650D950FB6250B45091
:1046C000FD6250E450976250DA50F36250F8625045
:1046D000FD6250DB50FB6250FD6250AB501F50E456
:1046E000509D50B250DA62509A50DB50F2625098AE
:1046F00050B350F36250F662509950DC50F862505B
:10470000B450FA62509A50FC6250DD50FE6250FF85
:10471000626250DE62625084500B50A5502A50C233
:10472000500E50E4509650B250D462509350D55031
:10473000F562509150B350FA6250FF62509250D6D9
:1047400050F46250B450FF6250AB501F50E650938B
:1047500050B26250D750F46250B36250F56250D8F4
:1047600050F76250B450F86250E46250D950F5628C
:1047700050FA6250FF6250DA50F4625086500B508B
:10478000FF6250AC502550E450B2625084500B5040
:104790009450DB50F26250B350F3625082500B5091
:1047A000F66250F8625084500B50B450DC50FA62FC
:1047B000508E501250C35019509650D450FC625035
:1047C0009350D550FE62509150FF6262509250D685
:1047D0006262508E500F50A5502A50C3501550E4BD
:1047E000509650B250D462509350D550F3625091CD
:1047F00050B350F86250FD62509250D650FB625058
:10480000B450FD625082500E50AB501F50CE50122B
:1048100050E4509650B250D462509350D550F2624A
:10482000509150B350F36250F662509250D650F807
:104830006250B450FA625086500D50CD50115096CF
:1048400050D450FC62509350D550FE62509150FFAE
:104850006262509250D662625089500C50A4501C33
:1048600050CD501050E6509650B250D462509350F4
:10487000D550F462509150B36250F562509250D6C8
:1048800050F76250B450F86250E650936250D750DF
:10489000F4626250F56250D850F76250F862508965
:1048A000500A50A5502A50C9500C50E4509650B2AE
:1048B00050D462509350D550F362509150B350F899
:1048C0006250FD62509250D650FB6250B450FD626F
:1048D00050E450936250D750F36250F86250FD623A
:1048E00050D850FB6250FD6250AC502550E45098B7
:1048F00050B250D562509550D650F362509350B399
:1049000050F86250FD62509450D750FB6250B45042
:10491000FD6250E450956250D850F36250F86250F6
:10492000FD6250D950FB6250FD6250AB501F50E405
:1049300050B26250DA50F26250B350F36250F662F5
:1049400050DB50F862508B500A50B450FA6250FC61
:10495000625089500A509650DC50FE6250FF6250FF
:1049600087500A62625089500A50DD6250A5502A71
:1049700050E4509D50B250DA62509A50DB50F562CC
:10498000509850B350FA6250FF62509950DC50F486
:104990006250B450FF6250AB501F50E6509A50B274
:1049A0006250DD50F46250B36250F56250DE50F751
:1049B0006250B450F86250E46250DF50F56250FA31
:1049C0006250FF6250F462508B500A50FF6250AC4C
:1049D000502550E450B2625089500A509B50F26208
:1049E00050B350F3625087500A50F66250F862504C
:1049F00089500A50B450FA625083501550CB501F62
:104A0000509650D450FC62509350D550FE62509155
:104A100050FF62625080501450CF501D509650D4B9
:104A200062509350D56250A5502A50E4509150B234
:104A30006250F362508E501250C4501C509650B3C6
:104A400050D450F862509350D550FD62509150FBB5
:104A50006250B450FD62508E500F50AB501F50C387
:104A6000501550E4509650B250D462509350D550E7
:104A7000F262509150B350F36250F662509250D6A9
:104A800050F86250B450FA625082500E50CE50121C
:104A9000509650D450FC62509350D550FE625091C5
:104AA00050FF6262509250D662625089500C50ACF6
:104AB000502550CD501050E6509650B250D4625010
:104AC0009350D550F462509150B36250F5625092B9
:104AD00050D650F76250B450F86250E6509362508E
:104AE000D750F4626250F56250D850F76250F862C5
:104AF0005084500B50A0501450CF500E50E450B37F
:104B000050D26250F26250B450F36250F66250F8E4
:104B100062509F50BF50DF50FA6250E4509350B340
:104B200050D26250F26250B450F36250F66250F8C4
:104B300062509F50BF50DF50FA6250E46250F26200
:104B400050F36250F66250F86250FA62508F500E85
:104B500050AB501A50C0501450E4509350B350D240
:104B60006250F26250B450F36250F66250F86250F4
:104B7000B550FA6250E46250F562509450FA6250B7
:104B8000FF6250F46250FF625084500B50A05014EA
:104B900050CF500E50E4509350B36250F26250B474
:104BA00050F36250F66250F86250B550FA62508984
:104BB000500C50A7501650CD501050B350FC6250BE
:104BC000FE6250B450FF619D0850B5625086500D92
:104BD00050A3501950CE501250E650B36250F462B8
:104BE00050B46250F56250F76250B550F862508E82
:104BF000500B50A3501550CE500F50E450B362509C
:104C0000F56250B450FA6250FF6250F462509F5007
:104C1000BF50DF50FF6250E4509350B350D2625007
:104C2000F26250B450F36250F66250F862509F50F6
:104C3000BF50DF50FA6250FC6250FE6250FF617C50
:104C40000B5089500C50A7501650CD501050E650C4
:104C50009350B350D26250F46250B46250F5625037
:104C6000F762509F50BF50DF50F86250E4509350AD
:104C7000B350D26250F26250B450F36250F66250B8
:104C8000F862509F50BF50DF50FA6250E46250F219
:104C90006250F36250F66250F86250FA62508D50E2
:104CA0001050AF501D50C7501650E4509350B350A1
:104CB000D26250F26250B450F36250F66250F86221
:104CC000509F50BF50DF50FA6250E4509350B350A1
:104CD000D26250F26250B450F36250F66250F86201
:104CE000509F50BF50DF50FA62508F500750A55070
:104CF0002A50C7500950E4509650B250D162509398
:104D000050D250F362509150B350D550F86250D702
:104D100050FD62509250D950FB6250B450DB50FDB0
:104D2000625087500850E4509650DD62509350DF37
:104D300050F362509150D350F86250D650FD6250FB
:104D40009250DA50FB6250DC50FD62508F50075099
:104D5000AC502550CB500450E4509650B250D16224
:104D6000509350D250F362509150B350D550F862E6
:104D700050D750FD62509250D950FB6250B450DB76
:104D800050FD6250E4509350DD6250DF50F36250AA
:104D9000D350F86250D650FD6250DA50FB6250DCBE
:104DA00050FD625087500950AB501F50C5500650FF
:104DB000E4509650B250D162509350D250F26250AB
:104DC0009150B350D550F36250D750F66250925084
:104DD000D950F86250B450DB50FA62509350DD5015
:104DE000FC6250DF50FE6250D350FF6250D66250DA
:104DF000DA6250DC625089500C50A5502A50C550E0
:104E00000550E4509650B250D162509350D250F5B4
:104E100062509150B350D550FA6250D750FF625053
:104E20009250D950F46250B450DB50FF6250AB50F6
:104E30001F50CA500550E6509350B250D16250D224
:104E400050F46250B350D56250D750F56250D950EB
:104E5000F76250B450DB50F8625089500A50E45069
:104E60009650DF62509350F562509150FA6250FFB5
:104E700062509250F46250FF6250C5500650E450A8
:104E80009350B250D16250D250F26250B350D550CC
:104E9000F36250D750F66250D950F86250B450DBEC
:104EA00050FA62509850DF50FC62509550FE6250AC
:104EB0009350FF6262509462625087500950AC5028
:104EC0002550C1500750E4509650B250D1625093D3
:104ED00050D250F362509150B350D550F86250D731
:104EE00050FD62509250D950FB6250B450DB50FDDF
:104EF0006250AB501F50CF500750E4509350B25007
:104F0000D16250D250F26250B350D550F36250D7B4
:104F100050F66250D950F86250B450DB50FA6250EB
:104F2000DD50FC6250DF50FE6250D350FF6250D61D
:104F30006250DA625089500950DC6250AC50255002
:104F4000C1500750E650B250D1625087500950947A
:104F500050D250F46250B350D5625085500950D7AA
:104F600050F56250D950F7625087500950B450DB69
:104F700050F86250C5500650E6509850D162509596
:104F800050D250F462509350D56250D750F56250D1
:104F90009450D950F76250DB50F8625082500E5056
:104FA000A5502A50C7500950E4509650B250D162D3
:104FB000509350D250F362509150B350D550F86294
:104FC00050D750FD62509250D950FB6250B450DB24
:104FD00050FD625086500D50E4509650DD62509363
:104FE00050DF50F362509150D350F86250D650FDCC
:104FF00062509250DA50FB6250DC50FD6250895092
:105000000C50AC502550CB500450E4509650B25048
:10501000D162509350D250F362509150B350D5505A
:10502000F86250D750FD62509250D950FB6250B494
:1050300050DB50FD625089500A50E4509650DD62BA
:10504000509350DF50F362509150D350F86250D6D5
:1050500050FD62509250DA50FB6250DC50FD6250BD
:1050600081500750AB501F50C5500650E450965029
:10507000B250D162509350D250F262509150B3501E
:10508000D550F36250D750F662509250D950F86222
:1050900050B450DB50FA62508B5006509650DD50A1
:1050A000FC62509350DF50FE62509150D350FF622B
:1050B00050D662509250DA6250DC6250A5502A50AD
:1050C000C5500550E4509850B250D162509550D21E
:1050D00050F562509350B350D550FA6250D750FFFC
:1050E00062509450D950F46250B450DB50FF62507B
:1050F00081500750AB501F50CA500550E650965093
:10510000B250D162509350D250F462509150B3508B
:10511000D56250D750F562509250D950F76250B4D2
:1051200050DB50F86250E4509350DF6250F562500B
:10513000FA6250FF6250F46250FF6250AC5025504A
:10514000C5500650E4509850B250D162509550D29C
:1051500050F262509350B350D550F36250D750F68E
:1051600062509450D950F86250B450DB50FA6250FB
:105170008F5007509650DF50FC62509350FE6250A3
:105180009150FF62625092626250A5502A50C15005
:105190000750E4509350B250D16250D250F3625055
:1051A000B350D550F86250D750FD6250D950FB62D1
:1051B00050B450DB50FD625087500950AB501F5027
:1051C000CF500750E4509650B250D162509350D215
:1051D00050F262509150B350D550F36250D750F610
:1051E00062509250D950F86250B450DB50FA62507D
:1051F0009350DD50FC6250DF50FE6250D350FF628E
:1052000050D66250DA6250DC625089500A50A45085
:105210001C50C1500750E6509650B250D162509386
:1052200050D250F462509150B350D56250D750F5DF
:1052300062509250D950F76250B450DB50F862502F
:10524000C5500650E6509350D16250D250F462508F
:10525000D56250D750F56250D950F76250DB50F804
:105260006250A5502A50C7500950E4509650B25091
:10527000D162509350D250F362509150B350D550F8
:10528000F86250D750FD62509250D950FB6250B432
:1052900050DB50FD6250E4509350DD6250DF50F31C
:1052A0006250D350F86250D650FD6250DA50FB6223
:1052B00050DC50FD6250AC502550CB500450E450AF
:1052C000B250D16250D250F36250B350D550F86210
:1052D00050D750FD6250D950FB62508B500A50B4E9
:1052E00050DB50FD625087500950E4509650DD620B
:1052F000509350DF50F362509150D350F86250D623
:1053000050FD62509250DA50FB6250DC50FD62500A
:10531000AB501F50C5500650E4509350B250D1626C
:1053200050D250F26250B350D550F36250D750F67D
:105330006250D950F86250B450DB50FA6250DD50E0
:10534000FC6250DF50FE6250D350FF6250D6625074
:10535000DA625089500950DC625089500C50A550D7
:105360002A50C5500550E4509650B250D162508E2C
:10537000500B50D250F5625084500B50B350D55062
:10538000FA62509350D750FF62509150D950F46256
:1053900050B450DB50FF6250AB501F50CA50055004
:1053A000E6509250B250D16250D250F462509350B5
:1053B000B350D56250D750F5625086500B50D9503B
:1053C000F76250B450DB50F8625084500B50E450F8
:1053D000DF6250F5625082500B50FA6250FF62500B
:1053E00084500B50F46250FF625086500B50C550F1
:1053F0000650E450B250D16250D250F26250845004
:105400000B50B350D550F362509450D750F66250C1
:1054100082500B50D950F86250B450DB50FA6250B1
:1054200084500B50DF50FC6250FE625086500B508F
:10543000FF62625084500B62625082500B50AC503D
:105440002550C1500750E450B250D16250D250F3B1
:10545000625084500B50B350D550F86250D750FD75
:10546000625086500B50D950FB62509550B450DBBF
:1054700050FD625084500B50AB501F50CF5007501E
:10548000E450B250D16250D250F2625082500B5070
:10549000B350D550F36250D750F6625084500B5041
:1054A000D950F86250B450DB50FA625086500B501D
:1054B000DD50FC6250DF50FE625084500B50D350E0
:1054C000FF6250D6625082500B509650DA62509F65
:1054D00050DC625084500B50AC502550C1500750E6
:1054E000E650B250D16250D250F4625086500B5008
:1054F000B350D56250D750F5625084500B50D950FC
:10550000F76250B450DB50F8625082500B50C550D7
:105510000650E650D16250D250F4625084500B5085
:10552000D56250D750F5625086500B50D950F76273
:1055300050DB50F8625084501C50A5502A50C25085
:105540000E50E4509750B250D462509450D550F35E
:1055500062509250B350F86250FD62508B501A5016
:10556000C6500D509750D450FB62509450B450D553
:1055700050FD6250E450926250F3625083501950D3
:10558000C9500C509750D450F862509450D550FDEB
:1055900062509250FB6250FD625083501550AC50E7
:1055A0002550C9500A50E4509750B250D4625094DC
:1055B00050D550F362509250B350F86250FD625093
:1055C0009350D650FB6250B450FD6250E450946248
:1055D00050D750F36250F86250FD6250D850FB62D1
:1055E00050FD62508E501250AB501F50C7500950A2
:1055F000E4509750B250D462509450D550F262505B
:105600009250B350F36250F662509350D650F86205
:1056100050B450FA625082500E50C150075097500B
:10562000D450FC62509450D550FE62509250FF62AC
:1056300062509350D6626250A5502A50E450945064
:10564000B26250D750F56250B350FA6250FF6250C8
:10565000D850F46250B450FF62508E500F50AB508F
:105660001F50CF500750E6509750B250D46250941C
:1056700050D550F462509250B36250F5625093503E
:10568000D650F76250B450F86250E450946250D74C
:1056900050F56250FA6250FF6250D850F46250FFE9
:1056A00062508D501050AC502550C7500850E450F7
:1056B0009750B250D462509450D550F262509250EC
:1056C000B350F36250F662509350D650F86250B423
:1056D00050FA62509450FC6250D750FE6250FF6204
:1056E0006250D86262508E500F50A5502A50CF5051
:1056F0000750E4509750B250D462509450D550F3B4
:1057000062509250B350F86250FD62509350D650A0
:10571000FB6250B450FD625082500E50AB501F508F
:10572000C1500750E4509750B250D462509450D5B5
:1057300050F262509250B350F36250F66250935060
:10574000D650F86250B450FA625089500C50C5508F
:1057500006509750D450FC62509450D550FE625081
:105760009250FF6262509350D66262508E500B503E
:10577000A4501C50CF500550E6509750B250D46200
:10578000509450D550F462509250B36250F562502C
:105790009350D650F76250B450F8625089500A5076
:1057A000C5500550E6509750D462509450D550F4EF
:1057B0006250926250F562509350D650F76250F8A2
:1057C000625085500650A5502A50C7500950E450E9
:1057D0009650B250D162509350D250F362509150D3
:1057E000B350D550F86250D750FD62509250D95006
:1057F000FB6250B450DB50FD625081500750E450C2
:105800009650DD62509350DF50F362509150D35068
:10581000F86250D650FD62509250DA50FB6250DC74
:1058200050FD625085500650AC502550CB5004506E
:10583000E4509650B250D162509350D250F362501F
:105840009150B350D550F86250D750FD62509250ED
:10585000D950FB6250B450DB50FD6250E45093507D
:10586000DD6250DF50F36250D350F86250D650FDE5
:105870006250DA50FB6250DC50FD62508B50065093
:10588000AB501F50C5500650E4509650B250D162F4
:10589000509350D250F262509150B350D550F362B1
:1058A00050D750F662509250D950F86250B450DB45
:1058B00050FA62509350DD50FC6250DF50FE62504F
:1058C000D350FF6250D66250DA6250DC6250A5506D
:1058D0002A50C5500550E4509F50B250D16250D26A
:1058E00050F56250B350D550FA6250D750FF625015
:1058F000D950F46250B450DB50FF625081500750D1
:10590000AB501F50CA500550E6509650B250D1626D
:10591000509350D250F462509150B350D56250D74A
:1059200050F562509250D950F76250B450DB50F8A5
:105930006250E4509F50DF6250F56250FA6250FFAF
:105940006250F46250FF62508F500750C5500650AD
:10595000E4509650B250D162509350D250F26250FF
:105960009150B350D550F36250D750F662509250D8
:10597000D950F86250B450DB50FA62509350DF5067
:10598000FC6250FE6250FF617C0B50AC502550C150
:10599000500750E450B250D16250D250F36250B32D
:1059A00050D550F86250D750FD6250D950FB62502C
:1059B00081500850B450DB50FD6250AB501F50CFA7
:1059C000500750E450B250D162508F50075094505D
:1059D000D250F26250B350D550F362508D50075000
:1059E000D750F66250D950F862508F500750B450DB
:1059F000DB50FA6250DD50FC625081500850DF509D
:105A0000FE6250D350FF62508F500750D66250DA7A
:105A100062508D500750DC6250AC502550C1500789
:105A200050E650B250D162508F500750D250F462BD
:105A300050B350D56250815008509550D750F56200
:105A400050D950F762508F500750B450DB50F86275
:105A500050C5500650E650D162508D500750D2507C
:105A6000F46250D562508F500750D750F56250D92C
:105A700050F7625081500850DB50F8625084500B50
:105A800050A5502A50C7500950E4509650B250D1FA
:105A900062509350D250F362509150B350D550F8A9
:105AA0006250D750FD62509250D950FB6250B450B2
:105AB000DB50FD625089500A50E4509650DD625030
:105AC0009350DF50F362509150D350F86250D6504B
